{
  "contractName": "MigrationsUpgrade",
  "abi": [
    {
      "inputs": [
        {
          "internalType": "address",
          "name": "_originalContract",
          "type": "address"
        }
      ],
      "stateMutability": "nonpayable",
      "type": "constructor"
    },
    {
      "inputs": [],
      "name": "last_completed_migration",
      "outputs": [
        {
          "internalType": "uint256",
          "name": "",
          "type": "uint256"
        }
      ],
      "stateMutability": "view",
      "type": "function"
    },
    {
      "inputs": [],
      "name": "owner",
      "outputs": [
        {
          "internalType": "address",
          "name": "",
          "type": "address"
        }
      ],
      "stateMutability": "view",
      "type": "function"
    },
    {
      "inputs": [
        {
          "internalType": "address",
          "name": "new_address",
          "type": "address"
        }
      ],
      "name": "upgrade",
      "outputs": [],
      "stateMutability": "nonpayable",
      "type": "function"
    }
  ],
  "bytecode": "0x608060405234801561001057600080fd5b506040516104ab3803806104ab83398181016040528101906100329190610156565b336000806101000a81548173ffffffffffffffffffffffffffffffffffffffff021916908373ffffffffffffffffffffffffffffffffffffffff16021790555060008190508073ffffffffffffffffffffffffffffffffffffffff1663445df0ac6040518163ffffffff1660e01b8152600401602060405180830381865afa1580156100c2573d6000803e3d6000fd5b505050506040513d601f19601f820116820180604052508101906100e691906101b9565b60018190555050506101e6565b600080fd5b600073ffffffffffffffffffffffffffffffffffffffff82169050919050565b6000610123826100f8565b9050919050565b61013381610118565b811461013e57600080fd5b50565b6000815190506101508161012a565b92915050565b60006020828403121561016c5761016b6100f3565b5b600061017a84828501610141565b91505092915050565b6000819050919050565b61019681610183565b81146101a157600080fd5b50565b6000815190506101b38161018d565b92915050565b6000602082840312156101cf576101ce6100f3565b5b60006101dd848285016101a4565b91505092915050565b6102b6806101f56000396000f3fe608060405234801561001057600080fd5b50600436106100415760003560e01c80630900f01014610046578063445df0ac146100625780638da5cb5b14610080575b600080fd5b610060600480360381019061005b91906101f5565b61009e565b005b61006a610168565b604051610077919061023b565b60405180910390f35b61008861016e565b6040516100959190610265565b60405180910390f35b60008054906101000a900473ffffffffffffffffffffffffffffffffffffffff1673ffffffffffffffffffffffffffffffffffffffff163373ffffffffffffffffffffffffffffffffffffffff16036101655760008190508073ffffffffffffffffffffffffffffffffffffffff1663fdacd5766001546040518263ffffffff1660e01b8152600401610131919061023b565b600060405180830381600087803b15801561014b57600080fd5b505af115801561015f573d6000803e3d6000fd5b50505050505b50565b60015481565b60008054906101000a900473ffffffffffffffffffffffffffffffffffffffff1681565b600080fd5b600073ffffffffffffffffffffffffffffffffffffffff82169050919050565b60006101c282610197565b9050919050565b6101d2816101b7565b81146101dd57600080fd5b50565b6000813590506101ef816101c9565b92915050565b60006020828403121561020b5761020a610192565b5b6000610219848285016101e0565b91505092915050565b6000819050919050565b61023581610222565b82525050565b6000602082019050610250600083018461022c565b92915050565b61025f816101b7565b82525050565b600060208201905061027a6000830184610256565b9291505056fea26469706673582212205e9d685c98e646365727a632e12d799dddd0ce54803a1670c3a243d7d8bef30864736f6c63430008130033",
  "immutableReferences": {},
  "source": "pragma solidity ^0.8.19;\r\n\r\ncontract Migrations {\r\n    address public owner;\r\n    uint public last_completed_migration;\r\n\r\n    modifier restricted() {\r\n        if (msg.sender == owner) _;\r\n    }\r\n\r\n    constructor() {\r\n        owner = msg.sender;\r\n    }\r\n\r\n    function setCompleted(uint completed) public restricted {\r\n        last_completed_migration = completed;\r\n    }\r\n}\r\n\r\ncontract MigrationsUpgrade {\r\n    address public owner;\r\n    uint public last_completed_migration;\r\n\r\n    modifier restricted() {\r\n        if (msg.sender == owner) _;\r\n    }\r\n\r\n    constructor(address _originalContract) {\r\n        owner = msg.sender;\r\n        Migrations original = Migrations(_originalContract);\r\n        last_completed_migration = original.last_completed_migration();\r\n    }\r\n\r\n    function upgrade(address new_address) public restricted {\r\n        Migrations upgraded = Migrations(new_address);\r\n        upgraded.setCompleted(last_completed_migration);\r\n    }\r\n}\r\n",
  "sourcePath": "C:\\Main\\Projects\\Javascript\\Sigma Token\\contracts\\Migrations.sol",
  "compiler": {
    "name": "solc",
    "version": "0.8.19+commit.7dd6d404.Emscripten.clang"
  },
  "schemaVersion": "3.4.13",
  "updatedAt": "2023-06-03T07:15:38.947Z",
  "devdoc": {
    "kind": "dev",
    "methods": {},
    "version": 1
  },
  "userdoc": {
    "kind": "user",
    "methods": {},
    "version": 1
  }
}