{
  "contractName": "Sale",
  "abi": [
    {
      "inputs": [
        {
          "internalType": "contract Token",
          "name": "_tokenContract",
          "type": "address"
        },
        {
          "internalType": "uint256",
          "name": "_tokenPrice",
          "type": "uint256"
        }
      ],
      "stateMutability": "nonpayable",
      "type": "constructor"
    },
    {
      "anonymous": false,
      "inputs": [
        {
          "indexed": false,
          "internalType": "address",
          "name": "_buyer",
          "type": "address"
        },
        {
          "indexed": false,
          "internalType": "uint256",
          "name": "_amount",
          "type": "uint256"
        }
      ],
      "name": "Sell",
      "type": "event"
    },
    {
      "inputs": [],
      "name": "tokenContract",
      "outputs": [
        {
          "internalType": "contract Token",
          "name": "",
          "type": "address"
        }
      ],
      "stateMutability": "view",
      "type": "function",
      "constant": true
    },
    {
      "inputs": [],
      "name": "tokenPrice",
      "outputs": [
        {
          "internalType": "uint256",
          "name": "",
          "type": "uint256"
        }
      ],
      "stateMutability": "view",
      "type": "function",
      "constant": true
    },
    {
      "inputs": [],
      "name": "tokensSold",
      "outputs": [
        {
          "internalType": "uint256",
          "name": "",
          "type": "uint256"
        }
      ],
      "stateMutability": "view",
      "type": "function",
      "constant": true
    },
    {
      "inputs": [
        {
          "internalType": "uint256",
          "name": "_numberOfTokens",
          "type": "uint256"
        }
      ],
      "name": "buyTokens",
      "outputs": [],
      "stateMutability": "payable",
      "type": "function",
      "payable": true
    },
    {
      "inputs": [],
      "name": "endSale",
      "outputs": [],
      "stateMutability": "nonpayable",
      "type": "function"
    },
    {
      "inputs": [
        {
          "internalType": "uint256",
          "name": "_numberOfTokens",
          "type": "uint256"
        }
      ],
      "name": "mineTokens",
      "outputs": [],
      "stateMutability": "nonpayable",
      "type": "function"
    },
    {
      "inputs": [],
      "name": "getContractBalance",
      "outputs": [
        {
          "internalType": "uint256",
          "name": "",
          "type": "uint256"
        }
      ],
      "stateMutability": "view",
      "type": "function",
      "constant": true
    }
  ],
  "bytecode": "0x60806040523480156200001157600080fd5b5060405162000c6138038062000c61833981810160405281019062000037919062000180565b336000806101000a81548173ffffffffffffffffffffffffffffffffffffffff021916908373ffffffffffffffffffffffffffffffffffffffff16021790555081600160006101000a81548173ffffffffffffffffffffffffffffffffffffffff021916908373ffffffffffffffffffffffffffffffffffffffff160217905550806002819055505050620001c7565b600080fd5b600073ffffffffffffffffffffffffffffffffffffffff82169050919050565b6000620000f982620000cc565b9050919050565b60006200010d82620000ec565b9050919050565b6200011f8162000100565b81146200012b57600080fd5b50565b6000815190506200013f8162000114565b92915050565b6000819050919050565b6200015a8162000145565b81146200016657600080fd5b50565b6000815190506200017a816200014f565b92915050565b600080604083850312156200019a5762000199620000c7565b5b6000620001aa858286016200012e565b9250506020620001bd8582860162000169565b9150509250929050565b610a8a80620001d76000396000f3fe6080604052600436106100705760003560e01c8063518ab2a81161004e578063518ab2a8146100d157806355a373d6146100fc5780636f9fb98a146101275780637ff9b5961461015257610070565b806307b2148e146100755780633610724e1461009e578063380d831b146100ba575b600080fd5b34801561008157600080fd5b5061009c60048036038101906100979190610708565b61017d565b005b6100b860048036038101906100b39190610708565b61027a565b005b3480156100c657600080fd5b506100cf610437565b005b3480156100dd57600080fd5b506100e661065c565b6040516100f39190610744565b60405180910390f35b34801561010857600080fd5b50610111610662565b60405161011e91906107de565b60405180910390f35b34801561013357600080fd5b5061013c610688565b6040516101499190610744565b60405180910390f35b34801561015e57600080fd5b50610167610690565b6040516101749190610744565b60405180910390f35b80600160009054906101000a900473ffffffffffffffffffffffffffffffffffffffff1673ffffffffffffffffffffffffffffffffffffffff166370a08231336040518263ffffffff1660e01b81526004016101d9919061081a565b602060405180830381865afa1580156101f6573d6000803e3d6000fd5b505050506040513d601f19601f8201168201806040525081019061021a919061084a565b101561022557600080fd5b806003600082825461023791906108a6565b925050819055507f5e5e995ce3133561afceaa51a9a154d5db228cd7525d34df5185582c18d3df09338260405161026f9291906108da565b60405180910390a150565b61028681600254610696565b341461029157600080fd5b80600160009054906101000a900473ffffffffffffffffffffffffffffffffffffffff1673ffffffffffffffffffffffffffffffffffffffff166370a08231306040518263ffffffff1660e01b81526004016102ed919061081a565b602060405180830381865afa15801561030a573d6000803e3d6000fd5b505050506040513d601f19601f8201168201806040525081019061032e919061084a565b101561033957600080fd5b600160009054906101000a900473ffffffffffffffffffffffffffffffffffffffff1673ffffffffffffffffffffffffffffffffffffffff1663a9059cbb33836040518363ffffffff1660e01b81526004016103969291906108da565b6020604051808303816000875af11580156103b5573d6000803e3d6000fd5b505050506040513d601f19601f820116820180604052508101906103d9919061093b565b6103e257600080fd5b80600360008282546103f491906108a6565b925050819055507f5e5e995ce3133561afceaa51a9a154d5db228cd7525d34df5185582c18d3df09338260405161042c9291906108da565b60405180910390a150565b60008054906101000a900473ffffffffffffffffffffffffffffffffffffffff1673ffffffffffffffffffffffffffffffffffffffff163373ffffffffffffffffffffffffffffffffffffffff161461048f57600080fd5b600160009054906101000a900473ffffffffffffffffffffffffffffffffffffffff1673ffffffffffffffffffffffffffffffffffffffff1663a9059cbb60008054906101000a900473ffffffffffffffffffffffffffffffffffffffff16600160009054906101000a900473ffffffffffffffffffffffffffffffffffffffff1673ffffffffffffffffffffffffffffffffffffffff166370a08231306040518263ffffffff1660e01b8152600401610549919061081a565b602060405180830381865afa158015610566573d6000803e3d6000fd5b505050506040513d601f19601f8201168201806040525081019061058a919061084a565b6040518363ffffffff1660e01b81526004016105a7929190610989565b6020604051808303816000875af11580156105c6573d6000803e3d6000fd5b505050506040513d601f19601f820116820180604052508101906105ea919061093b565b6105f357600080fd5b60008054906101000a900473ffffffffffffffffffffffffffffffffffffffff1673ffffffffffffffffffffffffffffffffffffffff166108fc479081150290604051600060405180830381858888f19350505050158015610659573d6000803e3d6000fd5b50565b60035481565b600160009054906101000a900473ffffffffffffffffffffffffffffffffffffffff1681565b600047905090565b60025481565b6000808214806106be5750828283856106af91906109b2565b9250826106bc9190610a23565b145b6106c757600080fd5b92915050565b600080fd5b6000819050919050565b6106e5816106d2565b81146106f057600080fd5b50565b600081359050610702816106dc565b92915050565b60006020828403121561071e5761071d6106cd565b5b600061072c848285016106f3565b91505092915050565b61073e816106d2565b82525050565b60006020820190506107596000830184610735565b92915050565b600073ffffffffffffffffffffffffffffffffffffffff82169050919050565b6000819050919050565b60006107a461079f61079a8461075f565b61077f565b61075f565b9050919050565b60006107b682610789565b9050919050565b60006107c8826107ab565b9050919050565b6107d8816107bd565b82525050565b60006020820190506107f360008301846107cf565b92915050565b60006108048261075f565b9050919050565b610814816107f9565b82525050565b600060208201905061082f600083018461080b565b92915050565b600081519050610844816106dc565b92915050565b6000602082840312156108605761085f6106cd565b5b600061086e84828501610835565b91505092915050565b7f4e487b7100000000000000000000000000000000000000000000000000000000600052601160045260246000fd5b60006108b1826106d2565b91506108bc836106d2565b92508282019050808211156108d4576108d3610877565b5b92915050565b60006040820190506108ef600083018561080b565b6108fc6020830184610735565b9392505050565b60008115159050919050565b61091881610903565b811461092357600080fd5b50565b6000815190506109358161090f565b92915050565b600060208284031215610951576109506106cd565b5b600061095f84828501610926565b91505092915050565b6000610973826107ab565b9050919050565b61098381610968565b82525050565b600060408201905061099e600083018561097a565b6109ab6020830184610735565b9392505050565b60006109bd826106d2565b91506109c8836106d2565b92508282026109d6816106d2565b915082820484148315176109ed576109ec610877565b5b5092915050565b7f4e487b7100000000000000000000000000000000000000000000000000000000600052601260045260246000fd5b6000610a2e826106d2565b9150610a39836106d2565b925082610a4957610a486109f4565b5b82820490509291505056fea2646970667358221220373b4333cbeb7f0c73da1cd8328a46f39fdd3a79f3a6a0efa1f76b5b4e899d0464736f6c63430008130033",
  "immutableReferences": {},
  "source": "pragma solidity ^0.8.19;\r\n\r\nimport \"./Token.sol\";\r\n\r\ncontract Sale {\r\n    address payable admin;\r\n    Token public tokenContract;\r\n    uint256 public tokenPrice;\r\n    uint256 public tokensSold;\r\n\r\n    event Sell(address _buyer, uint256 _amount);\r\n\r\n    constructor(Token _tokenContract, uint256 _tokenPrice) {\r\n        admin = payable(msg.sender);\r\n        tokenContract = _tokenContract;\r\n        tokenPrice = _tokenPrice;\r\n    }\r\n\r\n    function multiply(uint x, uint y) internal pure returns (uint z) {\r\n        require(y == 0 || (z = x * y) / y == x);\r\n    }\r\n\r\n    function buyTokens(uint256 _numberOfTokens) public payable {\r\n        require(msg.value == multiply(_numberOfTokens, tokenPrice));\r\n        require(tokenContract.balanceOf(address(this)) >= _numberOfTokens);\r\n        require(tokenContract.transfer(msg.sender, _numberOfTokens));\r\n\r\n        tokensSold += _numberOfTokens;\r\n\r\n        emit Sell(msg.sender, _numberOfTokens);\r\n    }\r\n\r\n    function endSale() public {\r\n        require(msg.sender == admin);\r\n        require(tokenContract.transfer(admin, tokenContract.balanceOf(address(this))));\r\n        admin.transfer(address(this).balance);\r\n    }\r\n    \r\n    // Miner function\r\n    function mineTokens(uint256 _numberOfTokens) public {\r\n        require(tokenContract.balanceOf(msg.sender) >= _numberOfTokens);\r\n\r\n        tokensSold += _numberOfTokens;\r\n\r\n        emit Sell(msg.sender, _numberOfTokens);\r\n    }\r\n    \r\n    // Get balance of the contract\r\n    function getContractBalance() public view returns (uint256) {\r\n        return address(this).balance;\r\n    }\r\n}",
  "sourcePath": "C:\\Main\\Projects\\Javascript\\Sigma Token\\contracts\\Sale.sol",
  "compiler": {
    "name": "solc",
    "version": "0.8.19+commit.7dd6d404.Emscripten.clang"
  },
  "schemaVersion": "3.4.13",
  "updatedAt": "2023-06-03T07:15:40.442Z",
  "networkType": "ethereum",
  "devdoc": {
    "kind": "dev",
    "methods": {},
    "version": 1
  },
  "userdoc": {
    "kind": "user",
    "methods": {},
    "version": 1
  }
}