{
  "contractName": "Token",
  "abi": [
    {
      "inputs": [
        {
          "internalType": "uint256",
          "name": "_initialSupply",
          "type": "uint256"
        }
      ],
      "stateMutability": "nonpayable",
      "type": "constructor"
    },
    {
      "anonymous": false,
      "inputs": [
        {
          "indexed": true,
          "internalType": "address",
          "name": "_owner",
          "type": "address"
        },
        {
          "indexed": true,
          "internalType": "address",
          "name": "_spender",
          "type": "address"
        },
        {
          "indexed": false,
          "internalType": "uint256",
          "name": "_value",
          "type": "uint256"
        }
      ],
      "name": "Approval",
      "type": "event"
    },
    {
      "anonymous": false,
      "inputs": [
        {
          "indexed": true,
          "internalType": "address",
          "name": "_from",
          "type": "address"
        },
        {
          "indexed": true,
          "internalType": "address",
          "name": "_to",
          "type": "address"
        },
        {
          "indexed": false,
          "internalType": "uint256",
          "name": "_value",
          "type": "uint256"
        }
      ],
      "name": "Transfer",
      "type": "event"
    },
    {
      "inputs": [
        {
          "internalType": "address",
          "name": "",
          "type": "address"
        },
        {
          "internalType": "address",
          "name": "",
          "type": "address"
        }
      ],
      "name": "allowance",
      "outputs": [
        {
          "internalType": "uint256",
          "name": "",
          "type": "uint256"
        }
      ],
      "stateMutability": "view",
      "type": "function",
      "constant": true
    },
    {
      "inputs": [
        {
          "internalType": "address",
          "name": "",
          "type": "address"
        }
      ],
      "name": "balanceOf",
      "outputs": [
        {
          "internalType": "uint256",
          "name": "",
          "type": "uint256"
        }
      ],
      "stateMutability": "view",
      "type": "function",
      "constant": true
    },
    {
      "inputs": [],
      "name": "name",
      "outputs": [
        {
          "internalType": "string",
          "name": "",
          "type": "string"
        }
      ],
      "stateMutability": "view",
      "type": "function",
      "constant": true
    },
    {
      "inputs": [],
      "name": "standard",
      "outputs": [
        {
          "internalType": "string",
          "name": "",
          "type": "string"
        }
      ],
      "stateMutability": "view",
      "type": "function",
      "constant": true
    },
    {
      "inputs": [],
      "name": "symbol",
      "outputs": [
        {
          "internalType": "string",
          "name": "",
          "type": "string"
        }
      ],
      "stateMutability": "view",
      "type": "function",
      "constant": true
    },
    {
      "inputs": [],
      "name": "totalSupply",
      "outputs": [
        {
          "internalType": "uint256",
          "name": "",
          "type": "uint256"
        }
      ],
      "stateMutability": "view",
      "type": "function",
      "constant": true
    },
    {
      "inputs": [
        {
          "internalType": "address",
          "name": "_to",
          "type": "address"
        },
        {
          "internalType": "uint256",
          "name": "_value",
          "type": "uint256"
        }
      ],
      "name": "transfer",
      "outputs": [
        {
          "internalType": "bool",
          "name": "success",
          "type": "bool"
        }
      ],
      "stateMutability": "nonpayable",
      "type": "function"
    },
    {
      "inputs": [
        {
          "internalType": "address",
          "name": "_spender",
          "type": "address"
        },
        {
          "internalType": "uint256",
          "name": "_value",
          "type": "uint256"
        }
      ],
      "name": "approve",
      "outputs": [
        {
          "internalType": "bool",
          "name": "success",
          "type": "bool"
        }
      ],
      "stateMutability": "nonpayable",
      "type": "function"
    },
    {
      "inputs": [
        {
          "internalType": "address",
          "name": "_from",
          "type": "address"
        },
        {
          "internalType": "address",
          "name": "_to",
          "type": "address"
        },
        {
          "internalType": "uint256",
          "name": "_value",
          "type": "uint256"
        }
      ],
      "name": "transferFrom",
      "outputs": [
        {
          "internalType": "bool",
          "name": "success",
          "type": "bool"
        }
      ],
      "stateMutability": "nonpayable",
      "type": "function"
    },
    {
      "inputs": [
        {
          "internalType": "address",
          "name": "_address",
          "type": "address"
        }
      ],
      "name": "getBalance",
      "outputs": [
        {
          "internalType": "uint256",
          "name": "",
          "type": "uint256"
        }
      ],
      "stateMutability": "view",
      "type": "function",
      "constant": true
    }
  ],
  "bytecode": "0x60806040526040518060400160405280600b81526020017f5369676d6120546f6b656e000000000000000000000000000000000000000000815250600090816200004a9190620003d8565b506040518060400160405280600581526020017f5349474d4100000000000000000000000000000000000000000000000000000081525060019081620000919190620003d8565b506040518060400160405280601281526020017f5369676d6120546f6b656e2076312e302e30000000000000000000000000000081525060029081620000d89190620003d8565b50348015620000e657600080fd5b50604051620012613803806200126183398181016040528101906200010c9190620004f5565b80600460003373ffffffffffffffffffffffffffffffffffffffff1673ffffffffffffffffffffffffffffffffffffffff16815260200190815260200160002081905550806003819055505062000527565b600081519050919050565b7f4e487b7100000000000000000000000000000000000000000000000000000000600052604160045260246000fd5b7f4e487b7100000000000000000000000000000000000000000000000000000000600052602260045260246000fd5b60006002820490506001821680620001e057607f821691505b602082108103620001f657620001f562000198565b5b50919050565b60008190508160005260206000209050919050565b60006020601f8301049050919050565b600082821b905092915050565b600060088302620002607fffffffffffffffffffffffffffffffffffffffffffffffffffffffffffffffff8262000221565b6200026c868362000221565b95508019841693508086168417925050509392505050565b6000819050919050565b6000819050919050565b6000620002b9620002b3620002ad8462000284565b6200028e565b62000284565b9050919050565b6000819050919050565b620002d58362000298565b620002ed620002e482620002c0565b8484546200022e565b825550505050565b600090565b62000304620002f5565b62000311818484620002ca565b505050565b5b8181101562000339576200032d600082620002fa565b60018101905062000317565b5050565b601f82111562000388576200035281620001fc565b6200035d8462000211565b810160208510156200036d578190505b620003856200037c8562000211565b83018262000316565b50505b505050565b600082821c905092915050565b6000620003ad600019846008026200038d565b1980831691505092915050565b6000620003c883836200039a565b9150826002028217905092915050565b620003e3826200015e565b67ffffffffffffffff811115620003ff57620003fe62000169565b5b6200040b8254620001c7565b620004188282856200033d565b600060209050601f8311600181146200045057600084156200043b578287015190505b620004478582620003ba565b865550620004b7565b601f1984166200046086620001fc565b60005b828110156200048a5784890151825560018201915060208501945060208101905062000463565b86831015620004aa5784890151620004a6601f8916826200039a565b8355505b6001600288020188555050505b505050505050565b600080fd5b620004cf8162000284565b8114620004db57600080fd5b50565b600081519050620004ef81620004c4565b92915050565b6000602082840312156200050e576200050d620004bf565b5b60006200051e84828501620004de565b91505092915050565b610d2a80620005376000396000f3fe608060405234801561001057600080fd5b506004361061009e5760003560e01c806370a082311161006657806370a082311461015d57806395d89b411461018d578063a9059cbb146101ab578063dd62ed3e146101db578063f8b2cb4f1461020b5761009e565b806306fdde03146100a3578063095ea7b3146100c157806318160ddd146100f157806323b872dd1461010f5780635a3b7e421461013f575b600080fd5b6100ab61023b565b6040516100b891906109e2565b60405180910390f35b6100db60048036038101906100d69190610a9d565b6102c9565b6040516100e89190610af8565b60405180910390f35b6100f96103bb565b6040516101069190610b22565b60405180910390f35b61012960048036038101906101249190610b3d565b6103c1565b6040516101369190610af8565b60405180910390f35b610147610647565b60405161015491906109e2565b60405180910390f35b61017760048036038101906101729190610b90565b6106d5565b6040516101849190610b22565b60405180910390f35b6101956106ed565b6040516101a291906109e2565b60405180910390f35b6101c560048036038101906101c09190610a9d565b61077b565b6040516101d29190610af8565b60405180910390f35b6101f560048036038101906101f09190610bbd565b6108e4565b6040516102029190610b22565b60405180910390f35b61022560048036038101906102209190610b90565b610909565b6040516102329190610b22565b60405180910390f35b6000805461024890610c2c565b80601f016020809104026020016040519081016040528092919081815260200182805461027490610c2c565b80156102c15780601f10610296576101008083540402835291602001916102c1565b820191906000526020600020905b8154815290600101906020018083116102a457829003601f168201915b505050505081565b600081600560003373ffffffffffffffffffffffffffffffffffffffff1673ffffffffffffffffffffffffffffffffffffffff16815260200190815260200160002060008573ffffffffffffffffffffffffffffffffffffffff1673ffffffffffffffffffffffffffffffffffffffff168152602001908152602001600020819055508273ffffffffffffffffffffffffffffffffffffffff163373ffffffffffffffffffffffffffffffffffffffff167f8c5be1e5ebec7d5bd14f71427d1e84f3dd0314c0f7b2291e5b200ac8c7c3b925846040516103a99190610b22565b60405180910390a36001905092915050565b60035481565b6000600460008573ffffffffffffffffffffffffffffffffffffffff1673ffffffffffffffffffffffffffffffffffffffff1681526020019081526020016000205482111561040f57600080fd5b600560008573ffffffffffffffffffffffffffffffffffffffff1673ffffffffffffffffffffffffffffffffffffffff16815260200190815260200160002060003373ffffffffffffffffffffffffffffffffffffffff1673ffffffffffffffffffffffffffffffffffffffff1681526020019081526020016000205482111561049857600080fd5b81600460008673ffffffffffffffffffffffffffffffffffffffff1673ffffffffffffffffffffffffffffffffffffffff16815260200190815260200160002060008282546104e79190610c8c565b9250508190555081600460008573ffffffffffffffffffffffffffffffffffffffff1673ffffffffffffffffffffffffffffffffffffffff168152602001908152602001600020600082825461053d9190610cc0565b9250508190555081600560008673ffffffffffffffffffffffffffffffffffffffff1673ffffffffffffffffffffffffffffffffffffffff16815260200190815260200160002060003373ffffffffffffffffffffffffffffffffffffffff1673ffffffffffffffffffffffffffffffffffffffff16815260200190815260200160002060008282546105d09190610c8c565b925050819055508273ffffffffffffffffffffffffffffffffffffffff168473ffffffffffffffffffffffffffffffffffffffff167fddf252ad1be2c89b69c2b068fc378daa952ba7f163c4a11628f55a4df523b3ef846040516106349190610b22565b60405180910390a3600190509392505050565b6002805461065490610c2c565b80601f016020809104026020016040519081016040528092919081815260200182805461068090610c2c565b80156106cd5780601f106106a2576101008083540402835291602001916106cd565b820191906000526020600020905b8154815290600101906020018083116106b057829003601f168201915b505050505081565b60046020528060005260406000206000915090505481565b600180546106fa90610c2c565b80601f016020809104026020016040519081016040528092919081815260200182805461072690610c2c565b80156107735780601f1061074857610100808354040283529160200191610773565b820191906000526020600020905b81548152906001019060200180831161075657829003601f168201915b505050505081565b600081600460003373ffffffffffffffffffffffffffffffffffffffff1673ffffffffffffffffffffffffffffffffffffffff1681526020019081526020016000205410156107c957600080fd5b81600460003373ffffffffffffffffffffffffffffffffffffffff1673ffffffffffffffffffffffffffffffffffffffff16815260200190815260200160002060008282546108189190610c8c565b9250508190555081600460008573ffffffffffffffffffffffffffffffffffffffff1673ffffffffffffffffffffffffffffffffffffffff168152602001908152602001600020600082825461086e9190610cc0565b925050819055508273ffffffffffffffffffffffffffffffffffffffff163373ffffffffffffffffffffffffffffffffffffffff167fddf252ad1be2c89b69c2b068fc378daa952ba7f163c4a11628f55a4df523b3ef846040516108d29190610b22565b60405180910390a36001905092915050565b6005602052816000526040600020602052806000526040600020600091509150505481565b6000600460008373ffffffffffffffffffffffffffffffffffffffff1673ffffffffffffffffffffffffffffffffffffffff168152602001908152602001600020549050919050565b600081519050919050565b600082825260208201905092915050565b60005b8381101561098c578082015181840152602081019050610971565b60008484015250505050565b6000601f19601f8301169050919050565b60006109b482610952565b6109be818561095d565b93506109ce81856020860161096e565b6109d781610998565b840191505092915050565b600060208201905081810360008301526109fc81846109a9565b905092915050565b600080fd5b600073ffffffffffffffffffffffffffffffffffffffff82169050919050565b6000610a3482610a09565b9050919050565b610a4481610a29565b8114610a4f57600080fd5b50565b600081359050610a6181610a3b565b92915050565b6000819050919050565b610a7a81610a67565b8114610a8557600080fd5b50565b600081359050610a9781610a71565b92915050565b60008060408385031215610ab457610ab3610a04565b5b6000610ac285828601610a52565b9250506020610ad385828601610a88565b9150509250929050565b60008115159050919050565b610af281610add565b82525050565b6000602082019050610b0d6000830184610ae9565b92915050565b610b1c81610a67565b82525050565b6000602082019050610b376000830184610b13565b92915050565b600080600060608486031215610b5657610b55610a04565b5b6000610b6486828701610a52565b9350506020610b7586828701610a52565b9250506040610b8686828701610a88565b9150509250925092565b600060208284031215610ba657610ba5610a04565b5b6000610bb484828501610a52565b91505092915050565b60008060408385031215610bd457610bd3610a04565b5b6000610be285828601610a52565b9250506020610bf385828601610a52565b9150509250929050565b7f4e487b7100000000000000000000000000000000000000000000000000000000600052602260045260246000fd5b60006002820490506001821680610c4457607f821691505b602082108103610c5757610c56610bfd565b5b50919050565b7f4e487b7100000000000000000000000000000000000000000000000000000000600052601160045260246000fd5b6000610c9782610a67565b9150610ca283610a67565b9250828203905081811115610cba57610cb9610c5d565b5b92915050565b6000610ccb82610a67565b9150610cd683610a67565b9250828201905080821115610cee57610ced610c5d565b5b9291505056fea2646970667358221220844ec1e7409b10db3fcfd4a6e57e73bc0d6bc381ccbfb3c2693e666edfbc3ebb64736f6c63430008130033",
  "immutableReferences": {},
  "source": "pragma solidity ^0.8.19;\r\n\r\ncontract Token {\r\n    string public name = \"Sigma Token\";\r\n    string public symbol = \"SIGMA\";\r\n    string public standard = \"Sigma Token v1.0.0\";\r\n    uint256 public totalSupply;\r\n\r\n    event Transfer(\r\n        address indexed _from,\r\n        address indexed _to,\r\n        uint256 _value\r\n    );\r\n\r\n    event Approval(\r\n        address indexed _owner,\r\n        address indexed _spender,\r\n        uint256 _value\r\n    );\r\n\r\n    mapping(address => uint256) public balanceOf;\r\n    mapping(address => mapping(address => uint256)) public allowance;\r\n\r\n    constructor(uint256 _initialSupply) {\r\n        balanceOf[msg.sender] = _initialSupply;\r\n        totalSupply = _initialSupply;\r\n    }\r\n\r\n    function transfer(address _to, uint256 _value) public returns (bool success) {\r\n        require(balanceOf[msg.sender] >= _value);\r\n\r\n        balanceOf[msg.sender] -= _value;\r\n        balanceOf[_to] += _value;\r\n\r\n        emit Transfer(msg.sender, _to, _value);\r\n\r\n        return true;\r\n    }\r\n\r\n    function approve(address _spender, uint256 _value) public returns (bool success) {\r\n        allowance[msg.sender][_spender] = _value;\r\n\r\n        emit Approval(msg.sender, _spender, _value);\r\n\r\n        return true;\r\n    }\r\n\r\n    function transferFrom(address _from, address _to, uint256 _value) public returns (bool success) {\r\n        require(_value <= balanceOf[_from]);\r\n        require(_value <= allowance[_from][msg.sender]);\r\n\r\n        balanceOf[_from] -= _value;\r\n        balanceOf[_to] += _value;\r\n\r\n        allowance[_from][msg.sender] -= _value;\r\n\r\n        emit Transfer(_from, _to, _value);\r\n\r\n        return true;\r\n    }\r\n    \r\n    // Get balance of an address\r\n    function getBalance(address _address) public view returns (uint256) {\r\n        return balanceOf[_address];\r\n    }\r\n}",
  "sourcePath": "C:\\Main\\Projects\\Javascript\\Sigma Token\\contracts\\Token.sol",
  "compiler": {
    "name": "solc",
    "version": "0.8.19+commit.7dd6d404.Emscripten.clang"
  },
  "schemaVersion": "3.4.13",
  "updatedAt": "2023-06-03T07:15:40.439Z",
  "networkType": "ethereum",
  "devdoc": {
    "kind": "dev",
    "methods": {},
    "version": 1
  },
  "userdoc": {
    "kind": "user",
    "methods": {},
    "version": 1
  }
}